{
  "contractName": "Pawn",
  "abi": [
    {
      "inputs": [
        {
          "internalType": "uint256",
          "name": "",
          "type": "uint256"
        }
      ],
      "name": "loans",
      "outputs": [
        {
          "internalType": "contract IERC721",
          "name": "collateralKind",
          "type": "address"
        },
        {
          "internalType": "uint256",
          "name": "collateralTokenId",
          "type": "uint256"
        },
        {
          "internalType": "contract IERC20",
          "name": "currency",
          "type": "address"
        },
        {
          "internalType": "uint256",
          "name": "borrowAmount",
          "type": "uint256"
        },
        {
          "internalType": "uint256",
          "name": "repayAmount",
          "type": "uint256"
        },
        {
          "internalType": "uint256",
          "name": "deadline",
          "type": "uint256"
        },
        {
          "internalType": "bool",
          "name": "locked",
          "type": "bool"
        },
        {
          "internalType": "bool",
          "name": "liquidated",
          "type": "bool"
        },
        {
          "internalType": "address",
          "name": "borrower",
          "type": "address"
        },
        {
          "internalType": "address",
          "name": "lender",
          "type": "address"
        }
      ],
      "stateMutability": "view",
      "type": "function",
      "constant": true
    },
    {
      "inputs": [
        {
          "internalType": "contract IERC721",
          "name": "collateralKind",
          "type": "address"
        },
        {
          "internalType": "uint256",
          "name": "collateralTokenId",
          "type": "uint256"
        },
        {
          "internalType": "contract IERC20",
          "name": "currency",
          "type": "address"
        },
        {
          "internalType": "uint256",
          "name": "borrowAmount",
          "type": "uint256"
        },
        {
          "internalType": "uint256",
          "name": "repayAmount",
          "type": "uint256"
        },
        {
          "internalType": "uint256",
          "name": "deadline",
          "type": "uint256"
        }
      ],
      "name": "collateralize",
      "outputs": [
        {
          "internalType": "uint256",
          "name": "loanId",
          "type": "uint256"
        }
      ],
      "stateMutability": "nonpayable",
      "type": "function"
    },
    {
      "inputs": [
        {
          "internalType": "uint256",
          "name": "loanId",
          "type": "uint256"
        }
      ],
      "name": "lend",
      "outputs": [],
      "stateMutability": "nonpayable",
      "type": "function"
    },
    {
      "inputs": [
        {
          "internalType": "uint256",
          "name": "loanId",
          "type": "uint256"
        }
      ],
      "name": "repay",
      "outputs": [],
      "stateMutability": "nonpayable",
      "type": "function"
    },
    {
      "inputs": [
        {
          "internalType": "uint256",
          "name": "loanId",
          "type": "uint256"
        }
      ],
      "name": "liquidate",
      "outputs": [],
      "stateMutability": "nonpayable",
      "type": "function"
    }
  ],
  "bytecode": "0x608060405234801561001057600080fd5b50611074806100206000396000f3fe608060405234801561001057600080fd5b50600436106100575760003560e01c8063371fd8e61461005c578063415f12401461008a578063a6aa57ce146100b8578063e1ec3c68146100e6578063ed8e7b7a146101c3575b600080fd5b6100886004803603602081101561007257600080fd5b8101908080359060200190929190505050610263565b005b6100b6600480360360208110156100a057600080fd5b810190808035906020019092919050505061073d565b005b6100e4600480360360208110156100ce57600080fd5b8101908080359060200190929190505050610992565b005b610112600480360360208110156100fc57600080fd5b8101908080359060200190929190505050610c30565b604051808b73ffffffffffffffffffffffffffffffffffffffff1681526020018a81526020018973ffffffffffffffffffffffffffffffffffffffff168152602001888152602001878152602001868152602001851515815260200184151581526020018373ffffffffffffffffffffffffffffffffffffffff1681526020018273ffffffffffffffffffffffffffffffffffffffff1681526020019a505050505050505050505060405180910390f35b61024d600480360360c08110156101d957600080fd5b81019080803573ffffffffffffffffffffffffffffffffffffffff16906020019092919080359060200190929190803573ffffffffffffffffffffffffffffffffffffffff169060200190929190803590602001909291908035906020019092919080359060200190929190505050610d2b565b6040518082815260200191505060405180910390f35b600115156000828154811061027457fe5b906000526020600020906008020160060160009054906101000a900460ff1615151461029f57600080fd5b60001515600082815481106102b057fe5b906000526020600020906008020160060160019054906101000a900460ff161515146102db57600080fd5b600081815481106102e857fe5b906000526020600020906008020160020160009054906101000a900473ffffffffffffffffffffffffffffffffffffffff1673ffffffffffffffffffffffffffffffffffffffff166323b872dd336000848154811061034357fe5b906000526020600020906008020160070160009054906101000a900473ffffffffffffffffffffffffffffffffffffffff166000858154811061038257fe5b9060005260206000209060080201600401546040518463ffffffff1660e01b8152600401808473ffffffffffffffffffffffffffffffffffffffff1681526020018373ffffffffffffffffffffffffffffffffffffffff1681526020018281526020019350505050602060405180830381600087803b15801561040457600080fd5b505af1158015610418573d6000803e3d6000fd5b505050506040513d602081101561042e57600080fd5b8101908080519060200190929190505050506000818154811061044d57fe5b906000526020600020906008020160000160009054906101000a900473ffffffffffffffffffffffffffffffffffffffff1673ffffffffffffffffffffffffffffffffffffffff166323b872dd30600084815481106104a857fe5b906000526020600020906008020160060160029054906101000a900473ffffffffffffffffffffffffffffffffffffffff16600085815481106104e757fe5b9060005260206000209060080201600101546040518463ffffffff1660e01b8152600401808473ffffffffffffffffffffffffffffffffffffffff1681526020018373ffffffffffffffffffffffffffffffffffffffff1681526020018281526020019350505050600060405180830381600087803b15801561056957600080fd5b505af115801561057d573d6000803e3d6000fd5b5050505060016000828154811061059057fe5b906000526020600020906008020160060160016101000a81548160ff021916908315150217905550739e5c7835e4b13368fd628196c4f1c6cec89673fa73ffffffffffffffffffffffffffffffffffffffff1663573ade81600083815481106105f557fe5b906000526020600020906008020160020160009054906101000a900473ffffffffffffffffffffffffffffffffffffffff166000848154811061063457fe5b90600052602060002090600802016004015460016000868154811061065557fe5b906000526020600020906008020160070160009054906101000a900473ffffffffffffffffffffffffffffffffffffffff166040518563ffffffff1660e01b8152600401808573ffffffffffffffffffffffffffffffffffffffff1681526020018481526020018381526020018273ffffffffffffffffffffffffffffffffffffffff168152602001945050505050602060405180830381600087803b1580156106fe57600080fd5b505af1158015610712573d6000803e3d6000fd5b505050506040513d602081101561072857600080fd5b81019080805190602001909291905050505050565b3373ffffffffffffffffffffffffffffffffffffffff166000828154811061076157fe5b906000526020600020906008020160070160009054906101000a900473ffffffffffffffffffffffffffffffffffffffff1673ffffffffffffffffffffffffffffffffffffffff16146107b357600080fd5b60011515600082815481106107c457fe5b906000526020600020906008020160060160009054906101000a900460ff161515146107ef57600080fd5b600015156000828154811061080057fe5b906000526020600020906008020160060160019054906101000a900460ff1615151461082b57600080fd5b6000818154811061083857fe5b906000526020600020906008020160050154421161085557600080fd5b6000818154811061086257fe5b906000526020600020906008020160000160009054906101000a900473ffffffffffffffffffffffffffffffffffffffff1673ffffffffffffffffffffffffffffffffffffffff166323b872dd3033600085815481106108be57fe5b9060005260206000209060080201600101546040518463ffffffff1660e01b8152600401808473ffffffffffffffffffffffffffffffffffffffff1681526020018373ffffffffffffffffffffffffffffffffffffffff1681526020018281526020019350505050600060405180830381600087803b15801561094057600080fd5b505af1158015610954573d6000803e3d6000fd5b5050505060016000828154811061096757fe5b906000526020600020906008020160060160016101000a81548160ff02191690831515021790555050565b60001515600082815481106109a357fe5b906000526020600020906008020160060160009054906101000a900460ff161515146109ce57600080fd5b60001515600082815481106109df57fe5b906000526020600020906008020160060160019054906101000a900460ff16151514610a0a57600080fd5b4260008281548110610a1857fe5b90600052602060002090600802016005015411610a3457600080fd5b3360008281548110610a4257fe5b906000526020600020906008020160070160006101000a81548173ffffffffffffffffffffffffffffffffffffffff021916908373ffffffffffffffffffffffffffffffffffffffff160217905550600160008281548110610aa057fe5b906000526020600020906008020160060160006101000a81548160ff02191690831515021790555060008181548110610ad557fe5b906000526020600020906008020160020160009054906101000a900473ffffffffffffffffffffffffffffffffffffffff1673ffffffffffffffffffffffffffffffffffffffff166323b872dd3360008481548110610b3057fe5b906000526020600020906008020160060160029054906101000a900473ffffffffffffffffffffffffffffffffffffffff1660008581548110610b6f57fe5b9060005260206000209060080201600301546040518463ffffffff1660e01b8152600401808473ffffffffffffffffffffffffffffffffffffffff1681526020018373ffffffffffffffffffffffffffffffffffffffff1681526020018281526020019350505050602060405180830381600087803b158015610bf157600080fd5b505af1158015610c05573d6000803e3d6000fd5b505050506040513d6020811015610c1b57600080fd5b81019080805190602001909291905050505050565b60008181548110610c3d57fe5b90600052602060002090600802016000915090508060000160009054906101000a900473ffffffffffffffffffffffffffffffffffffffff16908060010154908060020160009054906101000a900473ffffffffffffffffffffffffffffffffffffffff16908060030154908060040154908060050154908060060160009054906101000a900460ff16908060060160019054906101000a900460ff16908060060160029054906101000a900473ffffffffffffffffffffffffffffffffffffffff16908060070160009054906101000a900473ffffffffffffffffffffffffffffffffffffffff1690508a565b60008673ffffffffffffffffffffffffffffffffffffffff166323b872dd3330896040518463ffffffff1660e01b8152600401808473ffffffffffffffffffffffffffffffffffffffff1681526020018373ffffffffffffffffffffffffffffffffffffffff1681526020018281526020019350505050600060405180830381600087803b158015610dbc57600080fd5b505af1158015610dd0573d6000803e3d6000fd5b50505050600080549050905060006040518061014001604052808973ffffffffffffffffffffffffffffffffffffffff1681526020018881526020018773ffffffffffffffffffffffffffffffffffffffff1681526020018681526020018581526020018481526020016000151581526020016000151581526020013373ffffffffffffffffffffffffffffffffffffffff168152602001600073ffffffffffffffffffffffffffffffffffffffff16815250908060018154018082558091505060019003906000526020600020906008020160009091909190915060008201518160000160006101000a81548173ffffffffffffffffffffffffffffffffffffffff021916908373ffffffffffffffffffffffffffffffffffffffff1602179055506020820151816001015560408201518160020160006101000a81548173ffffffffffffffffffffffffffffffffffffffff021916908373ffffffffffffffffffffffffffffffffffffffff160217905550606082015181600301556080820151816004015560a0820151816005015560c08201518160060160006101000a81548160ff02191690831515021790555060e08201518160060160016101000a81548160ff0219169083151502179055506101008201518160060160026101000a81548173ffffffffffffffffffffffffffffffffffffffff021916908373ffffffffffffffffffffffffffffffffffffffff1602179055506101208201518160070160006101000a81548173ffffffffffffffffffffffffffffffffffffffff021916908373ffffffffffffffffffffffffffffffffffffffff1602179055505050969550505050505056fea2646970667358221220834b66962822db442e18526d13a4db19aedf50a120b605f3987b8ea1d55e1efc64736f6c634300060c0033",
  "immutableReferences": {},
  "source": "// SPDX-License-Identifier: BUSL-1.1\npragma solidity 0.6.12;\n\nimport \"./Interfaces.sol\";\nimport \"./IERC721.sol\";\n\ncontract Pawn {\n    ILendingPool constant lendingPool = ILendingPool(address(0x9E5C7835E4b13368fd628196C4f1c6cEc89673Fa)); // Ropsten\n\n    // each loan\n    struct Loan {\n        IERC721 collateralKind;\n        uint256 collateralTokenId;\n        IERC20 currency;\n        uint256 borrowAmount;\n        uint256 repayAmount;\n        uint256 deadline;\n        bool locked;\n        bool liquidated;\n        address borrower;\n        address lender;\n    }\n\n    Loan[] public loans;\n    //mapping (uint256 => Loan) public loans;\n\n    // collateralize\n    function collateralize(IERC721 collateralKind, uint256 collateralTokenId, IERC20 currency, uint256 borrowAmount, uint256 repayAmount, uint256 deadline) public returns (uint256 loanId) {\n        collateralKind.transferFrom(msg.sender, address(this), collateralTokenId);\n        loanId = loans.length;\n        loans.push(Loan(collateralKind, collateralTokenId, currency, borrowAmount, repayAmount, deadline, false, false, msg.sender, address(0)));\n    }\n\n    // lend\n    function lend(uint256 loanId) public {\n        require(loans[loanId].locked == false);\n        require(loans[loanId].liquidated == false);\n        require(loans[loanId].deadline > block.timestamp);\n        loans[loanId].lender = msg.sender;\n        loans[loanId].locked = true;\n        loans[loanId].currency.transferFrom(msg.sender, loans[loanId].borrower, loans[loanId].borrowAmount);\n    }\n\n    // repay\n    function repay(uint256 loanId) public {\n        require(loans[loanId].locked == true);\n        require(loans[loanId].liquidated == false);\n        loans[loanId].currency.transferFrom(msg.sender, loans[loanId].lender, loans[loanId].repayAmount);\n        loans[loanId].collateralKind.transferFrom(address(this), loans[loanId].borrower, loans[loanId].collateralTokenId);\n        loans[loanId].liquidated = true; // Closed is same as liquidated - it no longer exists\n        lendingPool.repay(address(loans[loanId].currency), loans[loanId].repayAmount, 1, loans[loanId].lender); // Repay AAVE pool\n    }\n\n    // liquidate\n    function liquidate(uint256 loanId) public {\n        require(loans[loanId].lender == msg.sender);\n        require(loans[loanId].locked == true);\n        require(loans[loanId].liquidated == false);\n        require(block.timestamp > loans[loanId].deadline);\n        loans[loanId].collateralKind.transferFrom(address(this), msg.sender, loans[loanId].collateralTokenId);\n        loans[loanId].liquidated = true;\n    }\n}",
  "sourcePath": "/Users/jordan/legalnft-hackathon/mortgagelend/contracts/Pawn.sol",
  "compiler": {
    "name": "solc",
    "version": "0.6.12+commit.27d51765.Emscripten.clang"
  },
  "schemaVersion": "3.4.3",
  "updatedAt": "2021-11-21T18:45:10.896Z",
  "networkType": "ethereum",
  "devdoc": {
    "kind": "dev",
    "methods": {},
    "version": 1
  },
  "userdoc": {
    "kind": "user",
    "methods": {},
    "version": 1
  }
}